{
  "_format": "hh-sol-artifact-1",
  "contractName": "DisasterFundPool",
  "sourceName": "contracts/DisasterFundPool.sol",
  "abi": [
    {
      "inputs": [
        {
          "internalType": "address",
          "name": "_verifierAddr",
          "type": "address"
        }
      ],
      "stateMutability": "nonpayable",
      "type": "constructor"
    },
    {
      "anonymous": false,
      "inputs": [
        {
          "indexed": true,
          "internalType": "uint256",
          "name": "disasterId",
          "type": "uint256"
        },
        {
          "indexed": false,
          "internalType": "string",
          "name": "name",
          "type": "string"
        },
        {
          "indexed": false,
          "internalType": "uint256",
          "name": "pincode",
          "type": "uint256"
        },
        {
          "indexed": false,
          "internalType": "uint256",
          "name": "fundAmount",
          "type": "uint256"
        }
      ],
      "name": "DisasterRegistered",
      "type": "event"
    },
    {
      "anonymous": false,
      "inputs": [
        {
          "indexed": true,
          "internalType": "uint256",
          "name": "disasterId",
          "type": "uint256"
        },
        {
          "indexed": false,
          "internalType": "bool",
          "name": "active",
          "type": "bool"
        }
      ],
      "name": "DisasterStatusChanged",
      "type": "event"
    },
    {
      "anonymous": false,
      "inputs": [
        {
          "indexed": true,
          "internalType": "uint256",
          "name": "disasterId",
          "type": "uint256"
        },
        {
          "indexed": false,
          "internalType": "uint256",
          "name": "amount",
          "type": "uint256"
        }
      ],
      "name": "FundsAdded",
      "type": "event"
    },
    {
      "anonymous": false,
      "inputs": [
        {
          "indexed": true,
          "internalType": "uint256",
          "name": "disasterId",
          "type": "uint256"
        },
        {
          "indexed": false,
          "internalType": "address",
          "name": "recipient",
          "type": "address"
        },
        {
          "indexed": false,
          "internalType": "uint256",
          "name": "amount",
          "type": "uint256"
        }
      ],
      "name": "FundsClaimed",
      "type": "event"
    },
    {
      "inputs": [
        {
          "internalType": "uint256",
          "name": "disasterId",
          "type": "uint256"
        }
      ],
      "name": "addFundsToDisaster",
      "outputs": [],
      "stateMutability": "payable",
      "type": "function"
    },
    {
      "inputs": [],
      "name": "anonAadhaarVerifierAddr",
      "outputs": [
        {
          "internalType": "address",
          "name": "",
          "type": "address"
        }
      ],
      "stateMutability": "view",
      "type": "function"
    },
    {
      "inputs": [
        {
          "internalType": "uint256",
          "name": "disasterId",
          "type": "uint256"
        },
        {
          "internalType": "uint256",
          "name": "nullifier",
          "type": "uint256"
        }
      ],
      "name": "checkClaimed",
      "outputs": [
        {
          "internalType": "bool",
          "name": "",
          "type": "bool"
        }
      ],
      "stateMutability": "view",
      "type": "function"
    },
    {
      "inputs": [
        {
          "internalType": "uint256",
          "name": "disasterId",
          "type": "uint256"
        },
        {
          "internalType": "uint256",
          "name": "nullifierSeed",
          "type": "uint256"
        },
        {
          "internalType": "uint256",
          "name": "nullifier",
          "type": "uint256"
        },
        {
          "internalType": "uint256",
          "name": "timestamp",
          "type": "uint256"
        },
        {
          "internalType": "uint256",
          "name": "signal",
          "type": "uint256"
        },
        {
          "internalType": "uint256[4]",
          "name": "revealArray",
          "type": "uint256[4]"
        },
        {
          "internalType": "uint256[8]",
          "name": "groth16Proof",
          "type": "uint256[8]"
        }
      ],
      "name": "claimFunds",
      "outputs": [],
      "stateMutability": "nonpayable",
      "type": "function"
    },
    {
      "inputs": [
        {
          "internalType": "uint256",
          "name": "",
          "type": "uint256"
        }
      ],
      "name": "disasters",
      "outputs": [
        {
          "internalType": "uint256",
          "name": "id",
          "type": "uint256"
        },
        {
          "internalType": "string",
          "name": "name",
          "type": "string"
        },
        {
          "internalType": "string",
          "name": "description",
          "type": "string"
        },
        {
          "internalType": "uint256",
          "name": "pincode",
          "type": "uint256"
        },
        {
          "internalType": "uint256",
          "name": "totalFunds",
          "type": "uint256"
        },
        {
          "internalType": "uint256",
          "name": "claimedFunds",
          "type": "uint256"
        },
        {
          "internalType": "bool",
          "name": "active",
          "type": "bool"
        }
      ],
      "stateMutability": "view",
      "type": "function"
    },
    {
      "inputs": [
        {
          "internalType": "uint256",
          "name": "",
          "type": "uint256"
        },
        {
          "internalType": "uint256",
          "name": "",
          "type": "uint256"
        }
      ],
      "name": "disastersByPincode",
      "outputs": [
        {
          "internalType": "uint256",
          "name": "",
          "type": "uint256"
        }
      ],
      "stateMutability": "view",
      "type": "function"
    },
    {
      "inputs": [],
      "name": "getDisasterCount",
      "outputs": [
        {
          "internalType": "uint256",
          "name": "",
          "type": "uint256"
        }
      ],
      "stateMutability": "view",
      "type": "function"
    },
    {
      "inputs": [
        {
          "internalType": "uint256",
          "name": "disasterId",
          "type": "uint256"
        }
      ],
      "name": "getDisasterDetails",
      "outputs": [
        {
          "internalType": "uint256",
          "name": "id",
          "type": "uint256"
        },
        {
          "internalType": "string",
          "name": "name",
          "type": "string"
        },
        {
          "internalType": "string",
          "name": "description",
          "type": "string"
        },
        {
          "internalType": "uint256",
          "name": "pincode",
          "type": "uint256"
        },
        {
          "internalType": "uint256",
          "name": "totalFunds",
          "type": "uint256"
        },
        {
          "internalType": "uint256",
          "name": "claimedFunds",
          "type": "uint256"
        },
        {
          "internalType": "bool",
          "name": "active",
          "type": "bool"
        }
      ],
      "stateMutability": "view",
      "type": "function"
    },
    {
      "inputs": [
        {
          "internalType": "uint256",
          "name": "pincode",
          "type": "uint256"
        }
      ],
      "name": "getDisastersByPincode",
      "outputs": [
        {
          "internalType": "uint256[]",
          "name": "",
          "type": "uint256[]"
        }
      ],
      "stateMutability": "view",
      "type": "function"
    },
    {
      "inputs": [
        {
          "internalType": "uint256",
          "name": "",
          "type": "uint256"
        },
        {
          "internalType": "uint256",
          "name": "",
          "type": "uint256"
        }
      ],
      "name": "hasClaimed",
      "outputs": [
        {
          "internalType": "bool",
          "name": "",
          "type": "bool"
        }
      ],
      "stateMutability": "view",
      "type": "function"
    },
    {
      "inputs": [
        {
          "internalType": "uint256",
          "name": "timestamp",
          "type": "uint256"
        }
      ],
      "name": "isLessThan3HoursAgo",
      "outputs": [
        {
          "internalType": "bool",
          "name": "",
          "type": "bool"
        }
      ],
      "stateMutability": "view",
      "type": "function"
    },
    {
      "inputs": [],
      "name": "owner",
      "outputs": [
        {
          "internalType": "address",
          "name": "",
          "type": "address"
        }
      ],
      "stateMutability": "view",
      "type": "function"
    },
    {
      "inputs": [
        {
          "internalType": "string",
          "name": "name",
          "type": "string"
        },
        {
          "internalType": "string",
          "name": "description",
          "type": "string"
        },
        {
          "internalType": "uint256",
          "name": "pincode",
          "type": "uint256"
        },
        {
          "internalType": "uint256",
          "name": "fundAmount",
          "type": "uint256"
        }
      ],
      "name": "registerDisaster",
      "outputs": [
        {
          "internalType": "uint256",
          "name": "",
          "type": "uint256"
        }
      ],
      "stateMutability": "payable",
      "type": "function"
    },
    {
      "inputs": [
        {
          "internalType": "uint256",
          "name": "disasterId",
          "type": "uint256"
        },
        {
          "internalType": "bool",
          "name": "active",
          "type": "bool"
        }
      ],
      "name": "setDisasterStatus",
      "outputs": [],
      "stateMutability": "nonpayable",
      "type": "function"
    },
    {
      "inputs": [
        {
          "internalType": "uint256",
          "name": "amount",
          "type": "uint256"
        }
      ],
      "name": "withdraw",
      "outputs": [],
      "stateMutability": "nonpayable",
      "type": "function"
    }
  ],
  "bytecode": "0x60806040523480156200001157600080fd5b5060405162002d7c38038062002d7c833981810160405281019062000037919062000131565b806000806101000a81548173ffffffffffffffffffffffffffffffffffffffff021916908373ffffffffffffffffffffffffffffffffffffffff16021790555033600160006101000a81548173ffffffffffffffffffffffffffffffffffffffff021916908373ffffffffffffffffffffffffffffffffffffffff16021790555060016002819055505062000163565b600080fd5b600073ffffffffffffffffffffffffffffffffffffffff82169050919050565b6000620000f982620000cc565b9050919050565b6200010b81620000ec565b81146200011757600080fd5b50565b6000815190506200012b8162000100565b92915050565b6000602082840312156200014a5762000149620000c7565b5b60006200015a848285016200011a565b91505092915050565b612c0980620001736000396000f3fe6080604052600436106100e85760003560e01c8063856497431161008a578063a06eb0f911610059578063a06eb0f9146102ff578063a5bb8fb01461032f578063f0a8fdcd14610372578063f819a3d6146103af576100e8565b8063856497431461023e5780638da5cb5b1461027b57806397ff4f62146102a65780639fc704bb146102c2576100e8565b806329c0f0ae116100c657806329c0f0ae1461017e5780632e1a7d4d146101a75780633cdb0d09146101d05780635744eb8c14610213576100e8565b80630dbffbcd146100ed5780631ec7ea8f14610118578063204b06ed14610155575b600080fd5b3480156100f957600080fd5b506101026103ec565b60405161010f91906114b7565b60405180910390f35b34801561012457600080fd5b5061013f600480360381019061013a919061151c565b610410565b60405161014c9190611564565b60405180910390f35b34801561016157600080fd5b5061017c600480360381019061017791906115ab565b610429565b005b34801561018a57600080fd5b506101a560048036038101906101a091906117e3565b61057b565b005b3480156101b357600080fd5b506101ce60048036038101906101c9919061151c565b610a82565b005b3480156101dc57600080fd5b506101f760048036038101906101f2919061151c565b610c27565b60405161020a9796959493929190611915565b60405180910390f35b34801561021f57600080fd5b50610228610d86565b6040516102359190611992565b60405180910390f35b34801561024a57600080fd5b50610265600480360381019061026091906119ad565b610d9c565b6040516102729190611564565b60405180910390f35b34801561028757600080fd5b50610290610dd8565b60405161029d91906114b7565b60405180910390f35b6102c060048036038101906102bb919061151c565b610dfe565b005b3480156102ce57600080fd5b506102e960048036038101906102e491906119ad565b610f01565b6040516102f69190611564565b60405180910390f35b61031960048036038101906103149190611aa2565b610f30565b6040516103269190611992565b60405180910390f35b34801561033b57600080fd5b506103566004803603810190610351919061151c565b6111e9565b6040516103699796959493929190611915565b60405180910390f35b34801561037e57600080fd5b506103996004803603810190610394919061151c565b6113ba565b6040516103a69190611bff565b60405180910390f35b3480156103bb57600080fd5b506103d660048036038101906103d191906119ad565b611425565b6040516103e39190611992565b60405180910390f35b60008054906101000a900473ffffffffffffffffffffffffffffffffffffffff1681565b6000612a30426104209190611c50565b82119050919050565b600160009054906101000a900473ffffffffffffffffffffffffffffffffffffffff1673ffffffffffffffffffffffffffffffffffffffff163373ffffffffffffffffffffffffffffffffffffffff16146104b9576040517f08c379a00000000000000000000000000000000000000000000000000000000081526004016104b090611cf6565b60405180910390fd5b81600360008481526020019081526020016000206000015414610511576040517f08c379a000000000000000000000000000000000000000000000000000000000815260040161050890611d88565b60405180910390fd5b806003600084815260200190815260200160002060060160006101000a81548160ff021916908315150217905550817fea99e5cbea1a0064311c9ec20e2b67547a5a3968a2577b7395c873220ff3ccc78260405161056f9190611564565b60405180910390a25050565b866003600089815260200190815260200160002060000154146105d3576040517f08c379a00000000000000000000000000000000000000000000000000000000081526004016105ca90611d88565b60405180910390fd5b6003600088815260200190815260200160002060060160009054906101000a900460ff16610636576040517f08c379a000000000000000000000000000000000000000000000000000000000815260040161062d90611e1a565b60405180910390fd5b60056000888152602001908152602001600020600086815260200190815260200160002060009054906101000a900460ff16156106a8576040517f08c379a000000000000000000000000000000000000000000000000000000000815260040161069f90611ed2565b60405180910390fd5b826106b233611456565b146106f2576040517f08c379a00000000000000000000000000000000000000000000000000000000081526004016106e990611f64565b60405180910390fd5b600115156106ff85610410565b151514610741576040517f08c379a00000000000000000000000000000000000000000000000000000000081526004016107389061201c565b60405180910390fd5b6001151560008054906101000a900473ffffffffffffffffffffffffffffffffffffffff1673ffffffffffffffffffffffffffffffffffffffff166350de0e578888888888886040518763ffffffff1660e01b81526004016107a896959493929190612144565b602060405180830381865afa1580156107c5573d6000803e3d6000fd5b505050506040513d601f19601f820116820180604052508101906107e991906121bc565b15151461082b576040517f08c379a00000000000000000000000000000000000000000000000000000000081526004016108229061225b565b60405180910390fd5b6000826002600481106108415761084061227b565b5b60200201519050600360008981526020019081526020016000206003015481146108a0576040517f08c379a00000000000000000000000000000000000000000000000000000000081526004016108979061231c565b60405180910390fd5b6000662386f26fc10000905080600360008b815260200190815260200160002060050154600360008c8152602001908152602001600020600401546108e59190611c50565b1015610926576040517f08c379a000000000000000000000000000000000000000000000000000000000815260040161091d906123ae565b60405180910390fd5b6001600560008b8152602001908152602001600020600089815260200190815260200160002060006101000a81548160ff02191690831515021790555080600360008b8152602001908152602001600020600501600082825461098991906123ce565b9250508190555060003373ffffffffffffffffffffffffffffffffffffffff16826040516109b690612433565b60006040518083038185875af1925050503d80600081146109f3576040519150601f19603f3d011682016040523d82523d6000602084013e6109f8565b606091505b5050905080610a3c576040517f08c379a0000000000000000000000000000000000000000000000000000000008152600401610a33906124ba565b60405180910390fd5b897fa4eb50103b0591feb0bc913f479d92af5eb7ea33e8c397b49bab52ce6af26cb53384604051610a6e9291906124da565b60405180910390a250505050505050505050565b600160009054906101000a900473ffffffffffffffffffffffffffffffffffffffff1673ffffffffffffffffffffffffffffffffffffffff163373ffffffffffffffffffffffffffffffffffffffff1614610b12576040517f08c379a0000000000000000000000000000000000000000000000000000000008152600401610b0990611cf6565b60405180910390fd5b47811115610b55576040517f08c379a0000000000000000000000000000000000000000000000000000000008152600401610b4c90612575565b60405180910390fd5b6000600160009054906101000a900473ffffffffffffffffffffffffffffffffffffffff1673ffffffffffffffffffffffffffffffffffffffff1682604051610b9d90612433565b60006040518083038185875af1925050503d8060008114610bda576040519150601f19603f3d011682016040523d82523d6000602084013e610bdf565b606091505b5050905080610c23576040517f08c379a0000000000000000000000000000000000000000000000000000000008152600401610c1a90612607565b60405180910390fd5b5050565b6003602052806000526040600020600091509050806000015490806001018054610c5090612656565b80601f0160208091040260200160405190810160405280929190818152602001828054610c7c90612656565b8015610cc95780601f10610c9e57610100808354040283529160200191610cc9565b820191906000526020600020905b815481529060010190602001808311610cac57829003601f168201915b505050505090806002018054610cde90612656565b80601f0160208091040260200160405190810160405280929190818152602001828054610d0a90612656565b8015610d575780601f10610d2c57610100808354040283529160200191610d57565b820191906000526020600020905b815481529060010190602001808311610d3a57829003601f168201915b5050505050908060030154908060040154908060050154908060060160009054906101000a900460ff16905087565b60006001600254610d979190611c50565b905090565b600060056000848152602001908152602001600020600083815260200190815260200160002060009054906101000a900460ff16905092915050565b600160009054906101000a900473ffffffffffffffffffffffffffffffffffffffff1681565b80600360008381526020019081526020016000206000015414610e56576040517f08c379a0000000000000000000000000000000000000000000000000000000008152600401610e4d90611d88565b60405180910390fd5b60003411610e99576040517f08c379a0000000000000000000000000000000000000000000000000000000008152600401610e90906126f9565b60405180910390fd5b34600360008381526020019081526020016000206004016000828254610ebf91906123ce565b92505081905550807ff5e4934928a1e45d88c7a5aa2661fe0a801ca5017922e15122d74f1880155e1a34604051610ef69190611992565b60405180910390a250565b60056020528160005260406000206020528060005260406000206000915091509054906101000a900460ff1681565b6000600160009054906101000a900473ffffffffffffffffffffffffffffffffffffffff1673ffffffffffffffffffffffffffffffffffffffff163373ffffffffffffffffffffffffffffffffffffffff1614610fc2576040517f08c379a0000000000000000000000000000000000000000000000000000000008152600401610fb990611cf6565b60405180910390fd5b6000855111611006576040517f08c379a0000000000000000000000000000000000000000000000000000000008152600401610ffd9061278b565b60405180910390fd5b60008311611049576040517f08c379a00000000000000000000000000000000000000000000000000000000081526004016110409061281d565b60405180910390fd5b81341461108b576040517f08c379a0000000000000000000000000000000000000000000000000000000008152600401611082906128af565b60405180910390fd5b6000600260008154809291906110a0906128cf565b9190505590506040518060e0016040528082815260200187815260200186815260200185815260200184815260200160008152602001600115158152506003600083815260200190815260200160002060008201518160000155602082015181600101908161110f9190612ac3565b5060408201518160020190816111259190612ac3565b50606082015181600301556080820151816004015560a0820151816005015560c08201518160060160006101000a81548160ff02191690831515021790555090505060046000858152602001908152602001600020819080600181540180825580915050600190039060005260206000200160009091909190915055807feefbbb7dba7d03a67f0e60ac199021a95443b58633489a67bc3b9a6ab88179118786866040516111d593929190612b95565b60405180910390a280915050949350505050565b60006060806000806000806000600360008a81526020019081526020016000206040518060e00160405290816000820154815260200160018201805461122e90612656565b80601f016020809104026020016040519081016040528092919081815260200182805461125a90612656565b80156112a75780601f1061127c576101008083540402835291602001916112a7565b820191906000526020600020905b81548152906001019060200180831161128a57829003601f168201915b505050505081526020016002820180546112c090612656565b80601f01602080910402602001604051908101604052809291908181526020018280546112ec90612656565b80156113395780601f1061130e57610100808354040283529160200191611339565b820191906000526020600020905b81548152906001019060200180831161131c57829003601f168201915b505050505081526020016003820154815260200160048201548152602001600582015481526020016006820160009054906101000a900460ff1615151515815250509050806000015181602001518260400151836060015184608001518560a001518660c00151975097509750975097509750975050919395979092949650565b60606004600083815260200190815260200160002080548060200260200160405190810160405280929190818152602001828054801561141957602002820191906000526020600020905b815481526020019060010190808311611405575b50505050509050919050565b6004602052816000526040600020818154811061144157600080fd5b90600052602060002001600091509150505481565b60008173ffffffffffffffffffffffffffffffffffffffff169050919050565b600073ffffffffffffffffffffffffffffffffffffffff82169050919050565b60006114a182611476565b9050919050565b6114b181611496565b82525050565b60006020820190506114cc60008301846114a8565b92915050565b6000604051905090565b600080fd5b600080fd5b6000819050919050565b6114f9816114e6565b811461150457600080fd5b50565b600081359050611516816114f0565b92915050565b600060208284031215611532576115316114dc565b5b600061154084828501611507565b91505092915050565b60008115159050919050565b61155e81611549565b82525050565b60006020820190506115796000830184611555565b92915050565b61158881611549565b811461159357600080fd5b50565b6000813590506115a58161157f565b92915050565b600080604083850312156115c2576115c16114dc565b5b60006115d085828601611507565b92505060206115e185828601611596565b9150509250929050565b600080fd5b6000601f19601f8301169050919050565b7f4e487b7100000000000000000000000000000000000000000000000000000000600052604160045260246000fd5b611639826115f0565b810181811067ffffffffffffffff8211171561165857611657611601565b5b80604052505050565b600061166b6114d2565b90506116778282611630565b919050565b600067ffffffffffffffff82111561169757611696611601565b5b602082029050919050565b600080fd5b60006116ba6116b58461167c565b611661565b905080602084028301858111156116d4576116d36116a2565b5b835b818110156116fd57806116e98882611507565b8452602084019350506020810190506116d6565b5050509392505050565b600082601f83011261171c5761171b6115eb565b5b60046117298482856116a7565b91505092915050565b600067ffffffffffffffff82111561174d5761174c611601565b5b602082029050919050565b600061176b61176684611732565b611661565b90508060208402830185811115611785576117846116a2565b5b835b818110156117ae578061179a8882611507565b845260208401935050602081019050611787565b5050509392505050565b600082601f8301126117cd576117cc6115eb565b5b60086117da848285611758565b91505092915050565b6000806000806000806000610220888a031215611803576118026114dc565b5b60006118118a828b01611507565b97505060206118228a828b01611507565b96505060406118338a828b01611507565b95505060606118448a828b01611507565b94505060806118558a828b01611507565b93505060a06118668a828b01611707565b9250506101206118788a828b016117b8565b91505092959891949750929550565b611890816114e6565b82525050565b600081519050919050565b600082825260208201905092915050565b60005b838110156118d05780820151818401526020810190506118b5565b60008484015250505050565b60006118e782611896565b6118f181856118a1565b93506119018185602086016118b2565b61190a816115f0565b840191505092915050565b600060e08201905061192a600083018a611887565b818103602083015261193c81896118dc565b9050818103604083015261195081886118dc565b905061195f6060830187611887565b61196c6080830186611887565b61197960a0830185611887565b61198660c0830184611555565b98975050505050505050565b60006020820190506119a76000830184611887565b92915050565b600080604083850312156119c4576119c36114dc565b5b60006119d285828601611507565b92505060206119e385828601611507565b9150509250929050565b600080fd5b600067ffffffffffffffff821115611a0d57611a0c611601565b5b611a16826115f0565b9050602081019050919050565b82818337600083830152505050565b6000611a45611a40846119f2565b611661565b905082815260208101848484011115611a6157611a606119ed565b5b611a6c848285611a23565b509392505050565b600082601f830112611a8957611a886115eb565b5b8135611a99848260208601611a32565b91505092915050565b60008060008060808587031215611abc57611abb6114dc565b5b600085013567ffffffffffffffff811115611ada57611ad96114e1565b5b611ae687828801611a74565b945050602085013567ffffffffffffffff811115611b0757611b066114e1565b5b611b1387828801611a74565b9350506040611b2487828801611507565b9250506060611b3587828801611507565b91505092959194509250565b600081519050919050565b600082825260208201905092915050565b6000819050602082019050919050565b611b76816114e6565b82525050565b6000611b888383611b6d565b60208301905092915050565b6000602082019050919050565b6000611bac82611b41565b611bb68185611b4c565b9350611bc183611b5d565b8060005b83811015611bf2578151611bd98882611b7c565b9750611be483611b94565b925050600181019050611bc5565b5085935050505092915050565b60006020820190508181036000830152611c198184611ba1565b905092915050565b7f4e487b7100000000000000000000000000000000000000000000000000000000600052601160045260246000fd5b6000611c5b826114e6565b9150611c66836114e6565b9250828203905081811115611c7e57611c7d611c21565b5b92915050565b7f446973617374657246756e64506f6f6c3a2063616c6c6572206973206e6f742060008201527f746865206f776e65720000000000000000000000000000000000000000000000602082015250565b6000611ce06029836118a1565b9150611ceb82611c84565b604082019050919050565b60006020820190508181036000830152611d0f81611cd3565b9050919050565b7f446973617374657246756e64506f6f6c3a20646973617374657220646f65732060008201527f6e6f742065786973740000000000000000000000000000000000000000000000602082015250565b6000611d726029836118a1565b9150611d7d82611d16565b604082019050919050565b60006020820190508181036000830152611da181611d65565b9050919050565b7f446973617374657246756e64506f6f6c3a206469736173746572206973206e6f60008201527f7420616374697665000000000000000000000000000000000000000000000000602082015250565b6000611e046028836118a1565b9150611e0f82611da8565b604082019050919050565b60006020820190508181036000830152611e3381611df7565b9050919050565b7f446973617374657246756e64506f6f6c3a20757365722068617320616c72656160008201527f647920636c61696d65642066756e647320666f7220746869732064697361737460208201527f6572000000000000000000000000000000000000000000000000000000000000604082015250565b6000611ebc6042836118a1565b9150611ec782611e3a565b606082019050919050565b60006020820190508181036000830152611eeb81611eaf565b9050919050565b7f446973617374657246756e64506f6f6c3a2077726f6e6720757365722073696760008201527f6e616c2073656e74000000000000000000000000000000000000000000000000602082015250565b6000611f4e6028836118a1565b9150611f5982611ef2565b604082019050919050565b60006020820190508181036000830152611f7d81611f41565b9050919050565b7f446973617374657246756e64506f6f6c3a2070726f6f66206d7573742062652060008201527f67656e6572617465642077697468204161646861617220646174612067656e6560208201527f7261746564206c657373207468616e203320686f7572732061676f0000000000604082015250565b6000612006605b836118a1565b915061201182611f84565b606082019050919050565b6000602082019050818103600083015261203581611ff9565b9050919050565b600060049050919050565b600081905092915050565b6000819050919050565b6000602082019050919050565b6120728161203c565b61207c8184612047565b925061208782612052565b8060005b838110156120b857815161209f8782611b7c565b96506120aa8361205c565b92505060018101905061208b565b505050505050565b600060089050919050565b600081905092915050565b6000819050919050565b6000602082019050919050565b6120f6816120c0565b61210081846120cb565b925061210b826120d6565b8060005b8381101561213c5781516121238782611b7c565b965061212e836120e0565b92505060018101905061210f565b505050505050565b60006102008201905061215a6000830189611887565b6121676020830188611887565b6121746040830187611887565b6121816060830186611887565b61218e6080830185612069565b61219c6101008301846120ed565b979650505050505050565b6000815190506121b68161157f565b92915050565b6000602082840312156121d2576121d16114dc565b5b60006121e0848285016121a7565b91505092915050565b7f446973617374657246756e64506f6f6c3a2070726f6f662073656e742069732060008201527f6e6f742076616c69640000000000000000000000000000000000000000000000602082015250565b60006122456029836118a1565b9150612250826121e9565b604082019050919050565b6000602082019050818103600083015261227481612238565b9050919050565b7f4e487b7100000000000000000000000000000000000000000000000000000000600052603260045260246000fd5b7f446973617374657246756e64506f6f6c3a20757365722070696e636f6465206460008201527f6f6573206e6f74206d617463682064697361737465722070696e636f64650000602082015250565b6000612306603e836118a1565b9150612311826122aa565b604082019050919050565b60006020820190508181036000830152612335816122f9565b9050919050565b7f446973617374657246756e64506f6f6c3a20696e73756666696369656e74206660008201527f756e647320617661696c61626c6520666f7220636c61696d0000000000000000602082015250565b60006123986038836118a1565b91506123a38261233c565b604082019050919050565b600060208201905081810360008301526123c78161238b565b9050919050565b60006123d9826114e6565b91506123e4836114e6565b92508282019050808211156123fc576123fb611c21565b5b92915050565b600081905092915050565b50565b600061241d600083612402565b91506124288261240d565b600082019050919050565b600061243e82612410565b9150819050919050565b7f446973617374657246756e64506f6f6c3a2066756e64207472616e736665722060008201527f6661696c65640000000000000000000000000000000000000000000000000000602082015250565b60006124a46026836118a1565b91506124af82612448565b604082019050919050565b600060208201905081810360008301526124d381612497565b9050919050565b60006040820190506124ef60008301856114a8565b6124fc6020830184611887565b9392505050565b7f446973617374657246756e64506f6f6c3a20696e73756666696369656e74206260008201527f616c616e63650000000000000000000000000000000000000000000000000000602082015250565b600061255f6026836118a1565b915061256a82612503565b604082019050919050565b6000602082019050818103600083015261258e81612552565b9050919050565b7f446973617374657246756e64506f6f6c3a207769746864726177616c2066616960008201527f6c65640000000000000000000000000000000000000000000000000000000000602082015250565b60006125f16023836118a1565b91506125fc82612595565b604082019050919050565b60006020820190508181036000830152612620816125e4565b9050919050565b7f4e487b7100000000000000000000000000000000000000000000000000000000600052602260045260246000fd5b6000600282049050600182168061266e57607f821691505b60208210810361268157612680612627565b5b50919050565b7f446973617374657246756e64506f6f6c3a20616d6f756e74206d75737420626560008201527f2067726561746572207468616e20300000000000000000000000000000000000602082015250565b60006126e3602f836118a1565b91506126ee82612687565b604082019050919050565b60006020820190508181036000830152612712816126d6565b9050919050565b7f446973617374657246756e64506f6f6c3a206e616d652063616e6e6f7420626560008201527f20656d7074790000000000000000000000000000000000000000000000000000602082015250565b60006127756026836118a1565b915061278082612719565b604082019050919050565b600060208201905081810360008301526127a481612768565b9050919050565b7f446973617374657246756e64506f6f6c3a2070696e636f6465206d757374206260008201527f652067726561746572207468616e203000000000000000000000000000000000602082015250565b60006128076030836118a1565b9150612812826127ab565b604082019050919050565b60006020820190508181036000830152612836816127fa565b9050919050565b7f446973617374657246756e64506f6f6c3a2073656e742076616c7565206d757360008201527f74206d617463682066756e64416d6f756e740000000000000000000000000000602082015250565b60006128996032836118a1565b91506128a48261283d565b604082019050919050565b600060208201905081810360008301526128c88161288c565b9050919050565b60006128da826114e6565b91507fffffffffffffffffffffffffffffffffffffffffffffffffffffffffffffffff820361290c5761290b611c21565b5b600182019050919050565b60008190508160005260206000209050919050565b60006020601f8301049050919050565b600082821b905092915050565b6000600883026129797fffffffffffffffffffffffffffffffffffffffffffffffffffffffffffffffff8261293c565b612983868361293c565b95508019841693508086168417925050509392505050565b6000819050919050565b60006129c06129bb6129b6846114e6565b61299b565b6114e6565b9050919050565b6000819050919050565b6129da836129a5565b6129ee6129e6826129c7565b848454612949565b825550505050565b600090565b612a036129f6565b612a0e8184846129d1565b505050565b5b81811015612a3257612a276000826129fb565b600181019050612a14565b5050565b601f821115612a7757612a4881612917565b612a518461292c565b81016020851015612a60578190505b612a74612a6c8561292c565b830182612a13565b50505b505050565b600082821c905092915050565b6000612a9a60001984600802612a7c565b1980831691505092915050565b6000612ab38383612a89565b9150826002028217905092915050565b612acc82611896565b67ffffffffffffffff811115612ae557612ae4611601565b5b612aef8254612656565b612afa828285612a36565b600060209050601f831160018114612b2d5760008415612b1b578287015190505b612b258582612aa7565b865550612b8d565b601f198416612b3b86612917565b60005b82811015612b6357848901518255600182019150602085019450602081019050612b3e565b86831015612b805784890151612b7c601f891682612a89565b8355505b6001600288020188555050505b505050505050565b60006060820190508181036000830152612baf81866118dc565b9050612bbe6020830185611887565b612bcb6040830184611887565b94935050505056fea2646970667358221220bb667d3953ae57749dc2f55379bb6041ffa335a44197d111d8db5af32f918df164736f6c63430008130033",
  "linkReferences": {},
  "deployedLinkReferences": {}
}